{
    "contractName": "CampaignFactory",
    "abi": [
        {
            "inputs": [
                {
                    "internalType": "uint256",
                    "name": "minimum",
                    "type": "uint256"
                }
            ],
            "name": "createCampaign",
            "outputs": [],
            "stateMutability": "nonpayable",
            "type": "function"
        },
        {
            "inputs": [
                {
                    "internalType": "uint256",
                    "name": "",
                    "type": "uint256"
                }
            ],
            "name": "deployedCampaigns",
            "outputs": [
                {
                    "internalType": "address",
                    "name": "",
                    "type": "address"
                }
            ],
            "stateMutability": "view",
            "type": "function"
        },
        {
            "inputs": [],
            "name": "getDeployedCampaigns",
            "outputs": [
                {
                    "internalType": "address[]",
                    "name": "",
                    "type": "address[]"
                }
            ],
            "stateMutability": "view",
            "type": "function"
        }
    ],
    "bytecode": "608060405234801561001057600080fd5b50610a65806100206000396000f3fe608060405234801561001057600080fd5b50600436106100415760003560e01c8063339d50a5146100465780634acb9d4f14610076578063a3303a751461008b575b600080fd5b6100596100543660046101cc565b6100a0565b6040516001600160a01b0390911681526020015b60405180910390f35b61007e6100ca565b60405161006d91906101e5565b61009e6100993660046101cc565b61012c565b005b600081815481106100b057600080fd5b6000918252602090912001546001600160a01b0316905081565b6060600080548060200260200160405190810160405280929190818152602001828054801561012257602002820191906000526020600020905b81546001600160a01b03168152600190910190602001808311610104575b5050505050905090565b6000338260405161013c906101bf565b6001600160a01b0390921682526020820152604001604051809103906000f08015801561016d573d6000803e3d6000fd5b50600080546001810182559080527f290decd9548b62a8d60345a988386fc84ba6bc95484008f6362f93160ef3e5630180546001600160a01b0319166001600160a01b03929092169190911790555050565b6107fd8061023383390190565b6000602082840312156101de57600080fd5b5035919050565b6020808252825182820181905260009190848201906040850190845b818110156102265783516001600160a01b031683529284019291840191600101610201565b5090969550505050505056fe608060405234801561001057600080fd5b506040516107fd3803806107fd83398101604081905261002f91610058565b600080546001600160a01b0319166001600160a01b039390931692909217909155600155610092565b6000806040838503121561006b57600080fd5b82516001600160a01b038116811461008257600080fd5b6020939093015192949293505050565b61075c806100a16000396000f3fe6080604052600436106100915760003560e01c8063937e09b111610059578063937e09b11461018a5780639fb42b1f146101a0578063cc5f9f99146101b6578063d7bb99ba146101c9578063d7d1bbdb146101d157600080fd5b80631f6d494214610096578063481c6a75146100db57806381d12c58146101135780638a9cfd55146101445780638f03850b14610166575b600080fd5b3480156100a257600080fd5b506100c66100b136600461055a565b60036020526000908152604090205460ff1681565b60405190151581526020015b60405180910390f35b3480156100e757600080fd5b506000546100fb906001600160a01b031681565b6040516001600160a01b0390911681526020016100d2565b34801561011f57600080fd5b5061013361012e36600461057e565b6101f1565b6040516100d2959493929190610597565b34801561015057600080fd5b5061016461015f366004610615565b6102b8565b005b34801561017257600080fd5b5061017c60025481565b6040519081526020016100d2565b34801561019657600080fd5b5061017c60015481565b3480156101ac57600080fd5b5061017c60045481565b6101646101c436600461057e565b61033c565b6101646103ef565b3480156101dd57600080fd5b506101646101ec36600461057e565b61042c565b60056020526000908152604090208054819061020c906106a0565b80601f0160208091040260200160405190810160405280929190818152602001828054610238906106a0565b80156102855780601f1061025a57610100808354040283529160200191610285565b820191906000526020600020905b81548152906001019060200180831161026857829003601f168201915b5050505060018301546002840154600390940154929390926001600160a01b0382169250600160a01b90910460ff169085565b6000546001600160a01b031633146102cf57600080fd5b600480546000916005918391826102e5836106db565b909155508152602081019190915260400160002090506103068186866104a9565b5060018101929092556002820180546001600160a81b0319166001600160a01b0390921691909117905560006003909101555050565b6000546001600160a01b0316331461035357600080fd5b60008181526005602052604090206002810154600160a01b900460ff161561037a57600080fd5b600280546103889190610704565b81600301541161039757600080fd5b600281015460018201546040516001600160a01b039092169181156108fc0291906000818181858888f193505050501580156103d7573d6000803e3d6000fd5b50600201805460ff60a01b1916600160a01b17905550565b60015434116103fd57600080fd5b336000908152600360205260408120805460ff191660011790556002805491610425836106db565b9190505550565b3360009081526003602052604090205460ff1661044857600080fd5b6000818152600560209081526040808320338452600481019092529091205460ff161561047457600080fd5b3360009081526004820160205260408120805460ff19166001179055600382018054916104a0836106db565b91905055505050565b8280546104b5906106a0565b90600052602060002090601f0160209004810192826104d7576000855561051d565b82601f106104f05782800160ff1982351617855561051d565b8280016001018555821561051d579182015b8281111561051d578235825591602001919060010190610502565b5061052992915061052d565b5090565b5b80821115610529576000815560010161052e565b6001600160a01b038116811461055757600080fd5b50565b60006020828403121561056c57600080fd5b813561057781610542565b9392505050565b60006020828403121561059057600080fd5b5035919050565b60a08152600086518060a084015260005b818110156105c5576020818a0181015160c08684010152016105a8565b818111156105d757600060c083860101525b5060208301879052601f01601f1916820160c001905061060260408301866001600160a01b03169052565b9215156060820152608001529392505050565b6000806000806060858703121561062b57600080fd5b843567ffffffffffffffff8082111561064357600080fd5b818701915087601f83011261065757600080fd5b81358181111561066657600080fd5b88602082850101111561067857600080fd5b602092830196509450508501359150604085013561069581610542565b939692955090935050565b600181811c908216806106b457607f821691505b602082108114156106d557634e487b7160e01b600052602260045260246000fd5b50919050565b60006000198214156106fd57634e487b7160e01b600052601160045260246000fd5b5060010190565b60008261072157634e487b7160e01b600052601260045260246000fd5b50049056fea2646970667358221220552e875f8ff54813a898cc1952833a8c46713e5134cbf37fd4eacfa0fd51094864736f6c634300080a0033a2646970667358221220b597996af762247a5fc87eacf17efbe40df71a8b71c8161b267c36e65130c3d064736f6c634300080a0033",
    "sourcePath": "/Users/benjaminchua/Documents/Projects/EthereumSolidityTutorial/kickstart/ethereum/contracts/Campaign.sol",
    "compiler": {
        "name": "solc",
        "version": "0.8.10+commit.fc410830"
    },
    "functionHashes": {
        "createCampaign(uint256)": "a3303a75",
        "deployedCampaigns(uint256)": "339d50a5",
        "getDeployedCampaigns()": "4acb9d4f"
    },
    "gasEstimates": {
        "creation": {
            "codeDepositCost": "532200",
            "executionCost": "568",
            "totalCost": "532768"
        },
        "external": {
            "createCampaign(uint256)": "infinite",
            "deployedCampaigns(uint256)": "4581",
            "getDeployedCampaigns()": "infinite"
        }
    }
}